{
  "contractName": "XBRNetworkProxy",
  "abi": [
    {
      "constant": false,
      "inputs": [],
      "name": "renounceMaintainer",
      "outputs": [],
      "payable": false,
      "stateMutability": "nonpayable",
      "type": "function"
    },
    {
      "constant": false,
      "inputs": [
        {
          "name": "account",
          "type": "address"
        }
      ],
      "name": "addMaintainer",
      "outputs": [],
      "payable": false,
      "stateMutability": "nonpayable",
      "type": "function"
    },
    {
      "constant": true,
      "inputs": [
        {
          "name": "account",
          "type": "address"
        }
      ],
      "name": "isMaintainer",
      "outputs": [
        {
          "name": "",
          "type": "bool"
        }
      ],
      "payable": false,
      "stateMutability": "view",
      "type": "function"
    },
    {
      "anonymous": false,
      "inputs": [
        {
          "indexed": true,
          "name": "account",
          "type": "address"
        }
      ],
      "name": "MaintainerAdded",
      "type": "event"
    },
    {
      "anonymous": false,
      "inputs": [
        {
          "indexed": true,
          "name": "account",
          "type": "address"
        }
      ],
      "name": "MaintainerRemoved",
      "type": "event"
    },
    {
      "constant": false,
      "inputs": [
        {
          "name": "networkContract",
          "type": "address"
        }
      ],
      "name": "setNetworkContract",
      "outputs": [],
      "payable": false,
      "stateMutability": "nonpayable",
      "type": "function"
    }
  ],
  "bytecode": "0x60806040526100163364010000000061001b810204565b6100f8565b6100336000826401000000006102c361006a82021704565b604051600160a060020a038216907f1390a149489c82e9e2e89927bdb17ad1ea3f0cc314fce06c96369721d3afb8f090600090a250565b600160a060020a038116151561007f57600080fd5b61009282826401000000006100c1810204565b1561009c57600080fd5b600160a060020a0316600090815260209190915260409020805460ff19166001179055565b6000600160a060020a03821615156100d857600080fd5b50600160a060020a03166000908152602091909152604090205460ff1690565b61033d806101076000396000f3fe6080604052600436106100615763ffffffff7c0100000000000000000000000000000000000000000000000000000000600035041663314db06b8114610066578063599b93481461007d5780636b453c1f146100b0578063dd57366a146100e3575b600080fd5b34801561007257600080fd5b5061007b61012a565b005b34801561008957600080fd5b5061007b600480360360208110156100a057600080fd5b5035600160a060020a0316610135565b3480156100bc57600080fd5b5061007b600480360360208110156100d357600080fd5b5035600160a060020a0316610178565b3480156100ef57600080fd5b506101166004803603602081101561010657600080fd5b5035600160a060020a0316610198565b604080519115158252519081900360200190f35b610133336101b0565b565b61013e33610198565b151561014957600080fd5b6001805473ffffffffffffffffffffffffffffffffffffffff1916600160a060020a0392909216919091179055565b61018133610198565b151561018c57600080fd5b610195816101f8565b50565b60006101aa818363ffffffff61024016565b92915050565b6101c160008263ffffffff61027716565b604051600160a060020a038216907fa7b36d52bea726c3aa90d876d0e52a1089a347b3e3408a03f08eae32f96fdbb490600090a250565b61020960008263ffffffff6102c316565b604051600160a060020a038216907f1390a149489c82e9e2e89927bdb17ad1ea3f0cc314fce06c96369721d3afb8f090600090a250565b6000600160a060020a038216151561025757600080fd5b50600160a060020a03166000908152602091909152604090205460ff1690565b600160a060020a038116151561028c57600080fd5b6102968282610240565b15156102a157600080fd5b600160a060020a0316600090815260209190915260409020805460ff19169055565b600160a060020a03811615156102d857600080fd5b6102e28282610240565b156102ec57600080fd5b600160a060020a0316600090815260209190915260409020805460ff1916600117905556fea165627a7a72305820fd4a4be5b207626012956ee8dd708fa519201ad706b2eceee68b4fd0271d1d860029",
  "source": "///////////////////////////////////////////////////////////////////////////////\n//\n//  Copyright (C) 2018 Crossbar.io Technologies GmbH and contributors.\n//\n//  Licensed under the Apache License, Version 2.0 (the \"License\");\n//  you may not use this file except in compliance with the License.\n//  You may obtain a copy of the License at\n//\n//      http://www.apache.org/licenses/LICENSE-2.0\n//\n//  Unless required by applicable law or agreed to in writing, software\n//  distributed under the License is distributed on an \"AS IS\" BASIS,\n//  WITHOUT WARRANTIES OR CONDITIONS OF ANY KIND, either express or implied.\n//  See the License for the specific language governing permissions and\n//  limitations under the License.\n//\n///////////////////////////////////////////////////////////////////////////////\n\npragma solidity ^0.5.0;\n\nimport \"./XBRMaintained.sol\";\n\n\n/**\n * @title XBR Network root SC\n * @author The XBR Project\n */\ncontract XBRNetworkProxy is XBRMaintained {\n\n    address internal _networkContract;\n\n    function setNetworkContract (address networkContract) public onlyMaintainer {\n        _networkContract = networkContract;\n    }\n}\n",
  "sourcePath": "/home/oberstet/scm/xbr/xbr-protocol/contracts/XBRNetworkProxy.sol",
  "compiler": {
    "name": "solc",
    "version": "0.5.0+commit.1d4f565a.Emscripten.clang"
  },
  "schemaVersion": "3.0.1",
  "updatedAt": "2019-02-27T00:28:35.631Z",
  "devdoc": {
    "author": "The XBR Project",
    "methods": {
      "addMaintainer(address)": {
        "params": {
          "account": "The account to grant maintainer rights to."
        }
      },
      "isMaintainer(address)": {
        "params": {
          "account": "The account to check."
        },
        "return": "`true` if the account is maintainer, otherwise `false`."
      }
    },
    "title": "XBR Network root SC"
  },
  "userdoc": {
    "methods": {
      "addMaintainer(address)": {
        "notice": "Add a new maintainer to the list of maintainers."
      },
      "isMaintainer(address)": {
        "notice": "Check if the given address is currently a maintainer."
      },
      "renounceMaintainer()": {
        "notice": "Give away maintainer rights."
      }
    }
  }
}